S011000072613865315F70726A2E73726563C7
S31502000000800C062201170002CD1B0002FD1600021B
S31502000010FD160002FD160002FD160002FD16000284
S31502000020000000000000000000000000A91E0002FF
S31502000030FD16000200000000C11E0002291F000278
S315020000400348044B834202D0034B03B1184770475F
S31502000050080006220800062200000000064B074997
S31502000060C91A891048BF0131491003D0044B0BB19C
S3150200007001481847704700BF0800062208000622FA
S315020000800000000010B5064C237843B9FFF7D8FFED
S31502000090044B13B10448AFF300800123237010BD53
S315020000A03800062200000000742E000208B5054B37
S315020000B01BB105490548AFF30080BDE80840FFF7CC
S315020000C0CDBF00BF000000003C000622742E0002D5
S315020000D04FF0FF31002200F10803C0E90131C0E907
S315020000E003330260704700BF00230361704700BFFD
S315020000F030B40D686B1C10D000F108031C465B6817
S315020001001A68AA42FAD902684B60013299608C6079
S315020001106160086130BC0260704704696368F2E797
S31502000120036910B4D0E901125C688A60516000214B
S31502000130844208BF5A601A680161013A1A60186857
S315020001405DF8044B704700BF70B51646026C044654
S31502000150856B12B386B9406802F0EEF86368216CCB
S31502000160A2680B449342636005F1010516D3236826
S3150200017000206360A56370BDC06802F0DDF8226CE2
S31502000180E36821689B1A8B42E360C2F1000202D245
S31502000190A3681344E360022E03D001350020A56351
S315020001A070BD012D38BF0125F8E700BF70B50546C1
S315020001B001F0FCFE95F845305CB2002C14DD05F129
S315020001C0240603E0631EDAB25CB26AB16B6A5BB103
S315020001D0304600F0E5FF0028F4D001F0A9F8631ECE
S315020001E0DAB25CB2002AF1D1FF2385F8453001F07C
S315020001F005FF01F0DBFE95F844305CB2002C14DDFD
S3150200020005F1100603E0631EDAB25CB26AB12B692D
S315020002105BB1304600F0C4FF0028F4D001F088F844
S31502000220631EDAB25CB2002AF1D1FF2385F84430AC
S31502000230BDE8704001F0E2BE70B5002848D0C56B3B
S315020002400446002D3DD0026CA2FB0525002D38D1B7
S315020002500E4601F0ABFED4E90F30FF2100FB03F39B
S315020002602268181A626013440244A563C4E9023282
S3150200027084F8441084F84510BEB923691BB901F00D
S31502000280BDFE012070BD04F1100000F089FF0028B8
S31502000290F5D04FF08052124B5A60BFF34F8FBFF327
S315020002A06F8F01F0ABFE012070BD04F11000FFF765
S315020002B00FFF04F12400FFF70BFF01F09FFE012060
S315020002C070BD40F26311074B074A084801F034FC3F
S315020002D04FF49771064B044A044801F02DFC00BF07
S315020002E000ED00E024240002602A0002C823000276
S315020002F01C24000270B582B023B30546D8B10E465F
S315020003001C4682B1B9B148230193019B482B20D1E7
S3150200031001212046C4E90F562260019BFFF78CFF9C
S31502000320204602B070BD31B948230193019B482B88
S315020003300FD12246ECE74FF4D071094B094A0A481D
S3150200034001F0FAFB40F27711084B064A064801F023
S31502000350F3FB40F28911064B024A034801F0ECFB1B
S3150200036074240002442A0002C82300024824000220
S315020003705824000230B583B0B8B1884203460D4610
S3150200038013D31446FAB148220192019A482A13D18C
S315020003900022E3630121204624602264019BFFF7C9
S315020003A04BFF2046A56303B030BD40F24731094BEF
S315020003B0094A0A4801F0C0FB40F28911084B094A72
S315020003C0064801F0B9FB40F27711074B054A03488C
S315020003D001F0B2FB80240002202A0002C823000298
S315020003E058240002442A0002482400022DE9F04162
S315020003F084B00192002800F0AF8004460F461E46E4
S31502000400002900F08B80022E03D1E36B012B40F012
S315020004109C8000F093FF002867D001F0C7FDA26B15
S31502000420E36B9A4253D3022E51D00020DFF8448167
S3150200043005460DE001F0E2FD2046FFF7B7FE00F0AB
S31502000440FFFC01F0B3FDA26BE36B01209A423ED39F
S31502000450019B002B6DD0B0B301F0D0FD00F0E8FC9B
S3150200046001F0A4FD94F84430FF2B08BF84F84450F1
S3150200047094F84530FF2B08BF84F8455001F0BEFDC5
S3150200048002A801A900F00CFF002858D101F08EFD48
S31502000490A26BE36B9A42CDD101F0B0FD019904F152
S315020004A0100000F029FE2046FFF780FE00F0C8FC8F
S315020004B00028C6D14FF08053C8F80430BFF34F8FDF
S315020004C0BFF36F8FBDE702A800F0DEFEC4E7324637
S315020004D039462046FFF738FE636A83B9A8B901F0A8
S315020004E08DFD012004B0BDE8F081019B002B94D064
S315020004F040F282311C4B1D4A1D4801F01DFB04F1DE
S31502000500240000F04DFE0028E9D04FF08052194B2E
S315020005105A60BFF34F8FBFF36F8FE0E7036C002B78
S315020005203FF471AF40F27E31134B104A104801F08E
S3150200053003FB01F063FD002004B0BDE8F081204614
S31502000540FFF734FE00F07CFCF5E740F27F310B4BFF
S31502000550064A074801F0F0FA40F27D31084B034A99
S31502000560034801F0E9FA00BF302500020C2A000216
S31502000570C823000200ED00E088240002E024000205
S315020005801C240002F0B585B00192002800F0A38079
S3150200059004460E4600296ED000F0D0FE002857D041
S315020005A001F004FDA56B002D6FD1019B002B35D008
S315020005B002A800F069FE2F4601F020FD00F038FC8B
S315020005C001F0F4FC94F84430FF2B08BF84F8447021
S315020005D094F84530FF2B08BF84F8457001F00EFDF4
S315020005E001A902A800F05CFEE8B901F0DFFCA36BEA
S315020005F033BB01F003FD019904F1240000F07CFDF8
S315020006002046FFF7D3FD00F01BFC58B301F0CEFCE9
S31502000610A56B002D39D1019B002BCDD101F0EEFC4B
S31502000620002005B0F0BD2046FFF7C0FD00F008FC33
S3150200063001F0BCFCA36B002BF0D001F0DFFCE5E778
S3150200064001F0DCFC2046FFF7B1FD00F0F9FBDDE727
S31502000650019B002BA4D040F2A551224B224A2348EB
S3150200066001F06AFA4FF08052214B5A60BFF34F8F66
S31502000670BFF36F8FCAE7036C002B8DD04FF4B461C2
S315020006801C4B194A194801F057FA226C5AB1D4E99F
S31502000690023111449942E16028BF2168304628BFE1
S315020006A0E16001F049FE013DA563236923B901F02A
S315020006B0A5FC012005B0F0BD04F1100000F070FDAC
S315020006C00028F4D04FF08052094B5A60BFF34F8F87
S315020006D0BFF36F8FEBE740F29C51074B024A034888
S315020006E001F02AFA30250002FC290002C823000282
S315020006F000ED00E0102600020426000270B584B068
S315020007000191002800F09180036C0446002B40F012
S31502000710858000F013FE002855D001F047FCA56B3A
S31502000720002D63D1019BA3B302A800F0ADFD2E46B6
S3150200073001F064FC00F07CFB01F038FC94F84430D4
S31502000740FF2B08BF84F8446094F84530FF2B08BF9E
S3150200075084F8456001F052FC01A902A800F0A0FD50
S31502000760E0B901F023FCA36B2BBB01F047FC019916
S3150200077004F1240000F0C0FC2046FFF717FD00F04C
S315020007805FFB50B301F012FCA56B7DBB019B002BF6
S31502000790CED101F033FC002004B070BD2046FFF735
S315020007A005FD00F04DFB01F001FCA36B002BF0D020
S315020007B001F024FCE6E701F021FC2046FFF7F6FCF7
S315020007C000F03EFBDEE7019B002BA6D040F237612C
S315020007D0194B1A4A1A4801F0AFF94FF08052194BD9
S315020007E05A60BFF34F8FBFF36F8FCBE7013DA5630F
S315020007F0236923B901F002FC012004B070BD04F1A3
S31502000800100000F0CDFC0028F4D04FF080520D4BC2
S315020008105A60BFF34F8FBFF36F8FEBE740F232613F
S31502000820094B064A064801F087F940F22E61074B4A
S31502000830024A034801F080F930250002E829000245
S31502000840C823000200ED00E084250002042600020F
S3150200085070B518B3F1B10024144D0A222B46A446F2
S3150200086005E0013A0CF1010C03F108030FD05E68B2
S31502000870864210D0002CF4D155F83C600CF1010CE4
S31502000880002E08BF1C46013A03F10803EFD10CB152
S31502000890C4E9001070BD05EBCC04F9E740F615314A
S315020008A0034B044A044801F047F900BF58000622E8
S315020008B0BC230002D4290002C823000270B50446F4
S315020008C00E46154601F072FB94F84430FF2B04BF26
S315020008D0002384F8443094F84530FF2B04BF0023EC
S315020008E084F8453001F08AFBA36B23B12046BDE8AC
S315020008F07040FFF75BBC04F124002A46314600F043
S3150200090019FC2046BDE87040FFF750BCF8B5044616
S31502000910214B224E1D6830680F460430FFF700FC5B
S31502000920631C17D033682D195D600BD21C4B1868F7
S3150200093031680431FFF7DCFB1A4B1A68AA4200D968
S315020009401D60F8BD184B18683168BDE8F8400431DF
S31502000950FFF7CEBB6FB933686A1E5A60002DF1D11C
S315020009600F4B186831680431FFF7C2FB0D4B1B6849
S31502000970F8BD0E4B3068596832688C688160D46065
S31502000980326830680432356862601A6804300132AF
S3150200099088601A606B61F8BDC8000622A4010622AF
S315020009A014010622AC00062210010622D0000622FD
S315020009B080B54FF08059124C124E134D134FDFF88B
S315020009C050800EE001F0F2FAF368D8680430FFF7BF
S315020009D0A7FB2B68013B2B602368013B236001F0D8
S315020009E00DFB2368002BEDD13B68012B05D9C8F816
S315020009F00490BFF34F8FBFF36F8F01F01DFBF0E73B
S31502000A00E4000622E8000622CC0006224001062265
S31502000A1000ED00E02DE9F04F4F4B83B01A6802F16A
S31502000A20010CC3F800C0BCF1000F6CD04B4A13682E
S31502000A309C455FD3DFF834E1DEF800301868002801
S31502000A4078D00020DFF83C9180468346444F0192DD
S31502000A5045E05969D3E90220906042604A681E1D4A
S31502000A60B24208BF486008689A6A0138C3F814801F
S31502000A70086072B1D3E9071088604160516803F1DA
S31502000A801804A142116808BF50600139C3F82880D2
S31502000A901160D9F80010DA6A8A4202EB820107EB8A
S31502000AA08100456888BFC9F8002057F82140D5F86B
S31502000AB008A09D60C3F80CA00134CAF80460AE60B9
S31502000AC05861284B47F821401968DEF80030C96A98
S31502000AD01B688A4288BF4FF0010B002B28D0DEF834
S31502000AE00030DB68DB6859688C45B2D2019A5846F9
S31502000AF0116000E000201C4B1B68002B18BF012070
S31502000B0003B0BDE8F08F194B1A681268E2B9184AA9
S31502000B101868146817491C6010600A6801320A6076
S31502000B201A68126852B94FF0FF330C4A13607EE717
S31502000B305846019A4FF0FF331360DCE71B68074AF9
S31502000B40DB681B68136072E740F6F4210A4B0B4A16
S31502000B500B4800F0F1FF00BFC8000622AC000622D7
S31502000B6040010622A4010622B8000622140106222A
S31502000B7010010622B4000622C8260002F42A000248
S31502000B8074260002C40006222DE9F04782B00C9CAE
S31502000B90DDE90A6ABAF1000F00F0BA80002C00F013
S31502000BA0CC809846602301931546019A9A4240F0FA
S31502000BB0BD80894605F18045013D07460021204654
S31502000BC00AEB8505019B25F0070501F0ADFBC4F88C
S31502000BD030A0B9F1000F10D04FF0100C09F1FF3E12
S31502000BE004F133031EF9011F03F8011F11B1BCF111
S31502000BF0010CF7D1002384F84330042E00F28F80D3
S31502000C0004F104094846E662FFF76EFAC6F10506E4
S31502000C1004F11800FFF768FA43463A46216BA661CB
S31502000C2028462461646201F0ABF9206001F0BEF946
S31502000C30454A464E1368013313603368002B3BD096
S31502000C40434FE36A3A68002A2FD0424D424943484D
S31502000C500A6801320A6002689A4238BF036003EBEF
S31502000C60830305EB83014A689B009068A260E060FB
S31502000C70C0F80490C2F80890EA5861610132EA505D
S31502000C8001F0BCF93B6863B13268E36AD26A9A4200
S31502000C9007D24FF08052324B5A60BFF34F8FBFF3E9
S31502000CA06F8F204602B0BDE8F0873268294DD26ABE
S31502000CB09A4298BF3460C9E734601368012B03D0A7
S31502000CC0E36A244D224FC1E7224D2F4605F16408FF
S31502000CD038461437FFF7FCF9B845F9D1DFF8B88082
S31502000CE0204F4046FFF7F4F93846FFF7F1F91E4860
S31502000CF0FFF7EEF91D48FFF7EBF91D48FFF7E8F994
S31502000D001C4BC3F800801C4B1F60E36A104F9DE723
S31502000D1040F24321194B1A4A1A4800F00DFF40F2DD
S31502000D209631194B194A174800F006FF4FF4137112
S31502000D30174B134A134800F0FFFE4FF41171154B7F
S31502000D400F4A104800F0F8FECC000622A401062243
S31502000D50C000062240010622B0000622C400062276
S31502000D6000ED00E018010622FC000622E800062239
S31502000D70D000062214010622100106224027000294
S31502000D80502B00027426000298270002382B00021C
S31502000D907C270002602700022C01062230B50024BF
S31502000DA089B007AA06A905A8CDE9054401F034FAD7
S31502000DB0069A059D2346CDE9012514491448079A4A
S31502000DC00094FFF7E1FE28B100F060FC012805D08F
S31502000DD0013013D00F4B1B6809B030BD80F3108869
S31502000DE04FF0FF350C490D4A0D4B0D6010601C602B
S31502000DF001F062F9074B1B6809B030BD4FF402617E
S31502000E00084B094A094800F097FE00BFD82700029E
S31502000E10B1090002642B0002AC000622C0000622C1
S31502000E20C8000622E0270002182B000274260002E0
S31502000E30024A136801331360704700BFA8000622F6
S31502000E402DE9F04F5A4F83B03B68002B00F0A98082
S31502000E5001F0ACF83B68013B3B60D7F80080B8F183
S31502000E60000F40F08F80534B1B68002B00F08A80E6
S31502000E70DFF868E1DEF80030002B00F08F804E4B81
S31502000E80DFF85C914D4EDFF85CA10193DEF80C3081
S31502000E90DB689A6AD3E9070181604860506803F10A
S31502000EA01804A04208BF51601168C3F828800139AE
S31502000EB011605A69D3E902108860416051681D1DAC
S31502000EC0A942116808BF506001391160D9F80010B3
S31502000ED0DA6A8A4202EB820106EB810CDCF80440F4
S31502000EE088BFC9F8002056F82100D4F808B00130AE
S31502000EF09C60C3F80CB0CBF80450A560C3F814C0CC
S31502000F0046F82100DAF80030DB6A9A4202D9012259
S31502000F10019B1A60DEF80030002BB7D1284B1A6805
S31502000F201268002A35D01A68264BD26812681A60EF
S31502000F30254D2C68A4B10126DDF8048006E0FFF7F2
S31502000F4069FD08B1C8F80060013C08D03B68002B77
S31502000F50F5D02B68013C03F101032B60F6D12C601E
S31502000F60019B1B6873B14FF08052184B5A60BFF356
S31502000F704F8FBFF36F8F012401F040F8204603B074
S31502000F80BDE8F08F002401F039F8204603B0BDE831
S31502000F90F08F4FF0FF320B4B1A60C9E7064B0193F5
S31502000FA0C6E740F693010A4B0A4A0B4800F0C4FD15
S31502000FB0A8000622CC000622B8000622400106221C
S31502000FC014010622AC000622BC00062200ED00E057
S31502000FD0F4270002082B000274260002FC000622F7
S31502000FE0C4000622A401062208B550B10D4B1968A9
S31502000FF081B91A6801321A60FFF788FCFFF720FFF1
S3150200100038B94FF08052084B5A60BFF34F8FBFF387
S315020010106F8F08BD4FF4A461044B054A054800F0E2
S315020010208BFD00BFA800062200ED00E0AC270002FF
S315020010302C2B000274260002014B1868704700BF71
S31502001040C8000622054B1B680BB9FFF7E3BC044A2E
S315020010500020136801331360704700BFA800062200
S31502001060BC0006221C4B1B681BB101221B4B1A60DB
S3150200107070471A4A10B51A4C13602368194803EBD5
S315020010808302920082584FEA830C6AB9EBB11A4680
S3150200109001E0013A19D0013B03EB830150F821101C
S315020010A04FEA830C0029F4D09C4400EB8C010846DD
S315020010B04A680830526882424A6004BFCA684A6077
S315020010C0D168094A1160236010BD40F63341074BCF
S315020010D0074A084800F030FDA8000622B80006229A
S315020010E0C400062240010622A4010622202800028C
S315020010F0E02A00027426000210B558B10C46094BCC
S3150200110019681831FEF7F4FF2046BDE810400121A8
S31502001110FFF7FCBB40F64B41034B044A044800F080
S315020011200BFD00BFA401062230280002C82A0002D5
S3150200113074260002F8B5034610B308461146144C4D
S315020011405D6822682768D56126682268D4F800E0BF
S3150200115002F118041A68D5F808C01836002902F1F7
S315020011600102C7F820C018BF4FF0FF30CCF8046068
S31502001170AC60CEF828301A60BDE8F840FFF7C6BB6F
S3150200118040F68141034B044A044800F0D5FC00BFF7
S31502001190A401062230280002A82A000274260002B0
S315020011A0F8B5C368DB68002B54D0D3E907010026E3
S315020011B09A6A03F1180455688160A542486008BF1F
S315020011C051601168274D0139D86A9E6211602A68FA
S315020011D0A2B1254A5568A968C3E907514C6011684E
S315020011E0AC6001319A62214B11601B68DB6A834253
S315020011F02ED201231E4A18461360F8BD5A69D3E956
S315020012000241A1604C6054681E1DB44208BF516081
S315020012101168184C0139116022681749824200EBA5
S3150200122080024FEA820C01EB8202556838BF2060C9
S3150200123051F80C40AF689D60DF6001347E60AE609D
S315020012405A610A4B41F80C401B68DB6A8342D0D3D1
S315020012500020F8BD40F6B141084B094A094800F0A2
S315020012606BFC00BFA8000622FC000622A40106228F
S31502001270B8000622C4000622400106223C280002CB
S315020012808C2A000274260002034A044B12681B6869
S31502001290C0E90023704700BFB4000622C800062238
S315020012A0F8B550B30D4679B3044600F07FFE2B68BD
S315020012B0194A581C11681BD0DFF870C02668DCF882
S315020012C000706068BE4208D0884206D80023012416
S315020012D02B6000F093FE2046F8BD0F1ABB42F5D9EB
S315020012E05B1ADCF80010126803442B60C4E9001292
S315020012F0002400F083FE2046F8BD40F62C51074B31
S31502001300074A084800F018FC40F62D51064B044ADD
S31502001310044800F011FC00BFC80006224C28000257
S31502001320742A00027426000258280002B40006221B
S315020013300122014B1A607047B8000622054B1B6852
S3150200134033B1054B1868B0FA80F040094000704787
S3150200135001207047C0000622A8000622F0B5144CF0
S3150200136083B000F023FE256825B103B0BDE8F04046
S3150200137000F044BE0F4F104E3846FEF7A9FE304627
S31502001380FEF7A6FEDFF840E0DFF840C000950C212C
S315020013900A200A4B0A4ACEF80070CCF80060FEF723
S315020013A0A9FF20600028E0D00649FFF751FADCE7E2
S315020013B070020622900206227C020622A80106225A
S315020013C0F00106226828000278020622740206222A
S315020013D02DE9F047DFF884900546D9F800300F462C
S315020013E0DB68DC6804F104084046FEF799FE94F8CF
S315020013F024305A070ED423F0010384F82430204601
S31502001400236ABDE8F047184793421BD82046236A51
S3150200141098473546A3697A1BEE182CBF0121002195
S31502001420B74266602461EFD2AF4201D20029EDD005
S31502001430D9F800004146FEF75BFE2046236ABDE866
S31502001440F0471847044B41461868FEF751FE2046FE
S31502001450236ABDE8F047184774020622780206227C
S315020014602DE9F04F814D824E824C834FDFF8188270
S3150200147085B02B68D3F800A0BAF1000F00F0C78040
S31502001480DB68D3F800A0FFF7D3FCFFF7D5FD33687E
S315020014908146834240D88245306040F2D3800022A2
S315020014A02068AAEB0901FFF709FAFFF7C9FC38B968
S315020014B04FF08053C8F80430BFF34F8FBFF36F8FDE
S315020014C00022206801A9FFF75DF80028D1D0019B10
S315020014D0002BF5DBDDF80C90D9F814301BB109F1BD
S315020014E00400FEF71DFEFFF7A7FD33688246984209
S315020014F024D3019BC6F800A0013B082BE0D8DFE805
S3150200150003F02525486F482525486F00DB684FF014
S31502001510FF311868FFF75CFF2B681A68002AF5D1BD
S315020015203A68C6F800902A603B60FFF789FCC7E775
S31502001530DB684FF0FF311868FFF74AFF2B681A681D
S31502001540002AF5D13A683B602A60D2E799F824C0AE
S31502001550029AD9F818104CF00100531889F82400A1
S315020015602CBF012000205345C9F80430C9F8109059
S315020015705ED8AAEB0202914243D81CF0040F1AD19C
S315020015802CF0010389F824304846D9F820309847D0
S3150200159096E799F8243023F0010389F824308FE77F
S315020015A0AAEB03038B4254D3D9F820304846984716
S315020015B05B46D9F8181013EB010B2CBF012200224F
S315020015C0DA45C9F804B0C9F81090E9D29A4501D2B1
S315020015D0002AE9D0286809F10401FEF789FDD3E75C
S315020015E099F82420029B42F0010289F82420C9F8C6
S315020015F01830A3B353445345C9F80430C9F81090C0
S315020016001AD8386809F10401FEF772FD58E7FFF7A8
S315020016100FFCFFF711FD336881469842FFF47CAF59
S315020016203B68C6F800901A68B2FA82F2520937E7A6
S31502001630524501D90028A0D0286809F10401FEF715
S3150200164057FD3DE7FFF7FCFB49465046FFF7C0FE54
S3150200165036E7386809F10401FEF74AFD94E74FF4CC
S315020016605D71064B064A074800F066FA78020622C2
S31502001670680206227002062274020622CC280002A2
S31502001680682B00027828000200ED00E030B589B030
S31502001690FFF764FE114B1B68CBB10024032507AA92
S315020016A006A905A8CDE9054400F0C4FD2346069A1D
S315020016B0059C0B49CDE901240A48079A0095FFF7D4
S315020016C063FA094B186010B1012009B030BD40F22F
S315020016D01911064B064A074800F02EFA7002062236
S315020016E0F4280002611400026C020622FC280002A1
S315020016F0842B000278280002704700BF00BE7047A4
S3150200170008B500F005F800F065FDFEE7FFFFFFFFF4
S3150200171070B5554B554D6B61BFF34F8FBFF36F8F4E
S31502001720534A136843F004031360BFF34F8FBFF3AA
S315020017306F8F4FF0E022936843F480339360BFF3D8
S315020017404F8FBFF36F8F4FF470034A4CC5F8883042
S315020017500020AC6000F0DCFD00F0FAF8012000F099
S31502001760D7FD2368A3F5806383F30A884248434A78
S315020017700021121A00F0D8FD4148424A4249121A83
S3150200178000F0DAFD4149424A4248521AD20842F072
S3150200179009C800BFAFF30080F1E80223E0E80223A4
S315020017A00FF007C03C493D4A3D48521AD20842F062
S315020017B009C800BFAFF30080F1E80223E0E8022384
S315020017C00FF007C0374B384A0020D21A0021D20840
S315020017D042F007C0AFF30080E3E802010FF005C054
S315020017E0BFF34F8FBFF36F8F0024C5F85042BFF38C
S315020017F04F8FBFF36F8F2D4B2D4D5B1BA34206DD23
S315020018009E1055F8043B01349847A642F9DC00F0D5
S3150200181055F800F039F9032000F040FA00234FF0A2
S31502001820100E1C464EF001E0224903F10C0221F88B
S31502001830224001330FF007C8032000F0FFF903200E
S3150200184000F02CFA1C4B03205C609C60DC601C617F
S3150200185000F0F4F9022000F05BFD00F0D9F9BDE8D2
S3150200186070400020FFF748BF01020E0000ED00E0C5
S3150200187000E001E000000002380006227C08062291
S315020018800000062208000622782E0002802E0002A0
S31502001890802E000200000000802E0002802E000230
S315020018A000000020000000200000002004000622A4
S315020018B000000622000D4040004020401E4A92F8D9
S315020018C0263092F82420DBB202F00F02A2F10801C0
S315020018D003292BD8DFE801F020160C021749184A13
S315020018E051F82330A2FB03231B09164A13607047E3
S315020018F01249134A51F82330A2FB0323114ADB088B
S31502001900136070470D490E4A51F82330A2FB032398
S315020019100C4A9B08136070470849094A51F823305C
S31502001920A2FB0323074A5B0813607047034951F879
S315020019302330D340D9E700BF00E001400800062269
S31502001940ABAAAAAAA4020622704700BFFFFFFFFFA6
S31502001950F8B54AF2035001234549464AA1F8FA036B
S31502001960938093889BB2002BFBD101244FF4004055
S315020019709FED3B6B9FED3C7B3F4B4049C3E9071113
S315020019805961148083ED007F1861FFF797FF384B8A
S3150200199093F8002C1AB993F8013C98075AD0344CA4
S315020019A094F8003C002B4AD00022314B83F8012CDC
S315020019B083F8002C00232E4A82F8363092F83C3007
S315020019C0D907FBD544F2117040F211110023284CBD
S315020019D01085A2F84C1082F82A3094F83C309B0607
S315020019E0FBD50823022105260025224A244F11771A
S315020019F0276284F8243084F82660FFF75FFF01210E
S31502001A00962000F0A3F884F824502762FFF756FFC9
S31502001A100121962000F09AF884F82660FFF74EFF1F
S31502001A204AF20152174B1A80BFF35F8F1D72BFF342
S31502001A305F8F4FF425421A80A4F8FA23F8BD0121DC
S31502001A40C82084F8001C00F081F894F8003C012BB1
S31502001A50FBD1A9E74FF47A70FFF776FFAAE700BF3A
S31502001A60002D310100127A00008000000000000003
S31502001A7000E0014000C1014008000622002A751557
S31502001A8098898A980020004038B50025284C012103
S31502001A90C82084F8285000F059F884F8245094F8A5
S31502001AA02430002BFBD194F82430214943F0020361
S31502001AB084F8243091F82430C3F340009B07F9D40C
S31502001AC01B4A81F8220092F8223003F0FF00002B15
S31502001AD0F9D192F84030164960F3C71382F84030C4
S31502001AE091F84030DB09FBD191F84200104A63F3CA
S31502001AF0C71081F8420092F84230DB09FBD192F816
S31502001B0044000B4963F3C71082F8440091F844304D
S31502001B10C3F3C014DB09F9D1012000F0BFF8054B6D
S31502001B20012083F84C4CBDE8384000F087B800BF6E
S31502001B300020204000E0014000BEFEE7FFFFFFFF5D
S31502001B40A0F101000028FBD1704700BF1C4B1D4AC3
S31502001B501B6800FB01F193420FD302F1854202F5A5
S31502001B60071202F68342A2FB03239B0CA3FB01315D
S31502001B704FF0FF30E1B1FFF7E3BF4FF47A7210B4D2
S31502001B80114C4FF0FF30B4FBF3F3A1FB02C434B99E
S31502001B90BCFBF3F080B15DF8044BFFF7D1BFB1FB9C
S31502001BA0F3F1A1FB0212002AF5D1084620B1F2E7B1
S31502001BB01846002BDFD170475DF8044B704700BF13
S31502001BC0A402062200127A0000CA9A3B70B50024CB
S31502001BD00D4B0E4EB3F80021B3F82051ADB21540AD
S31502001BE025FA04F3DB0704D556F82430E0B203B134
S31502001BF098470134102CF3D1034AA2F81051B2F8D7
S31502001C0020311D42FBD170BD00C00040A802062251
S31502001C100022602310B40748074C30F8021F02F571
S31502001C20C65C013209B144F82C10013BF5D15DF8CE
S31502001C30044B7047A62B000200600040EFF31081B0
S31502001C40012383F31088124B33F8102092B22AB183
S31502001C5033F81020013A92B223F8102033F81030EC
S31502001C609BB293B90B4A10B4B2F8FA330A4C9BB240
S31502001C7034F8100043F4254323EA0003A2F8FA33AA
S31502001C8081F310885DF8044B704781F31088704722
S31502001C90EC02062200E00140682C000230B4EFF3A9
S31502001CA01081012383F310880E4A32F810309BB25A
S31502001CB06BB90D4C0D4DB4F8FA3335F810C09BB222
S31502001CC043EA0C0343F425439BB2A4F8FA3332F8F1
S31502001CD0103001339BB222F8103081F3108830BCE9
S31502001CE0704700BFEC02062200E00140682C0002A9
S31502001CF02DE9F84F0388DBB14FF0000A80464FF01A
S31502001D000109DFF8D4B00024314D4FEACA07D8F8EA
S31502001D10043035F8022BD919898891420AD0013448
S31502001D20032CF4D1B8F800300AF1010A5345EAD877
S31502001D30BDE8F88FDB5909FA04F603F0B853B3F19C
S31502001D40807F244BF6B293F84C2C12D0324230D11B
S31502001D5004F120021BF81230DB09E0D01BF8123026
S31502001D60012123F08003C8200BF81230FFF7EEFEA4
S31502001D70D5E7324210D004F120021BF81230DB09FB
S31502001D80CDD11BF81230012143F08003C8200BF895
S31502001D901230FFF7DBFEC2E70120FFF77FFF0D4B94
S31502001DA0012093F84C2C324383F84C2CFFF746FF64
S31502001DB0E1E70120FFF772FF064B012093F84C2C56
S31502001DC022EA060283F84C2CFFF738FFC0E700BF71
S31502001DD0702C000200E0014000202040F8B50446C5
S31502001DE0FFF786FFEFF31082012383F31088254E57
S31502001DF033681BB9402024490B75087533680133D3
S31502001E00336082F31088218849B3C9000839C908AA
S31502001E1060681E4D013107E01B011344013945F884
S31502001E20234000F108001AD004688288E7034FEACB
S31502001E301223D2B2F0D502EB031C55F82CE01B019B
S31502001E4024F480372EF4803E1344013945F82CE001
S31502001E5000F1080045F82C7045F82340E4D1EFF371
S31502001E601082012383F31088336813B13368013B70
S31502001E70336033681BB9802003490B75087582F3FA
S31502001E801088F8BDE8020622000D404000084040D6
S31502001E9008B5034B03600846FFF7A0FF002008BD04
S31502001EA054524F5000BEFEE71EF0040F0CBFEFF374
S31502001EB00880EFF309800149084700004D1F000220
S31502001EC00F4B1968EFF309821EF0100F08BF22EDBF
S31502001ED0108A22E9F04FEFF30B8342F8043D0A60C1
S31502001EE04FF0100080F31188BFF34F8FBFF36F8F4F
S31502001EF0FFF7B8F84FF0000080F3118800F002B83F
S31502001F00A4010622074801680A6802CA81F30B88FF
S31502001F10B2E8F04F1EF0100F08BFB2EC108A82F33F
S31502001F2009887047A401062210B5EFF31184102325
S31502001F3083F31188FFF786F818B14FF08052024BEF
S31502001F405A6084F3118810BD00ED00E008B583697C
S31502001F5013F8023C022B02D0032B04D808BDBDE8BD
S31502001F600840FFF7CFBF4FF47E71024B024A034887
S31502001F70FFF7E2FD04290002A02C00021829000244
S31502001F8070B44FF080756FF00204074E283122F0CC
S31502001F90010240E9022540E9094340F80C6C40F889
S31502001FA0481D70BC704700BFA51E000208B5EFF3BE
S31502001FB01181102383F311880A4A13680133012B16
S31502001FC0136000D008BD084A084B11605B68C3F372
S31502001FD00803002BF6D040F2A441054B054A0648F9
S31502001FE0FFF7AAFDF8020622F402062200ED00E03F
S31502001FF0682900028C2C000218290002094A08B539
S3150200200013683BB1013B13601BB9074B1B6883F393
S31502002010118808BD40F2AD41044B054A0548FFF759
S315020020208BFD00BFF8020622F4020622B029000246
S31502002030782C00021829000238B572B60B4DFEF74D
S31502002040F7FE0B4C6B68234206D101210846FFF7C7
S315020020507DFD6B682342F8D062B6BFF36F8F72B60E
S3150200206062B6BDE83840FEF7EBBE00BF00ED00E009
S3150200207000F01F000D4B0E4A1B68A2FB03239B09AF
S31502002080013BB3F1807F00D370474FF0E0224FF05F
S31502002090F00C0020072110B4064C536184F823C0CB
S315020020A05DF8044B90611161704700BFA4020622DD
S315020020B0D34D621000ED00E0F02208B50B4B83F819
S315020020C02220FFF7D7FF0A4A536B43F0404353637C
S315020020D062B6BFF36F8FEFF3148C2CF0040C8CF303
S315020020E01488BFF36F8F02DF00BEFDE700ED00E04C
S315020020F000EF00E010B5044600F038F82046BDE8CF
S31502002100104000F0A5B800BF70B501250D4C0E4970
S3150200211023680E4E84B05819CDE901160C4B206087
S3150200212080220C490C480095FEF72EFD0B4B1860D9
S3150200213008B104B070BD014604B0BDE8704000F0BD
S3150200214013B800BF78080622800C06220003062276
S31502002150B42C0002C4290002F5200002FC02062269
S31502002160704700BFFFF7FCBF00BE704738B5164C7C
S315020021704FF0FF312068FEF7C1FA012803D0002193
S315020021802068FFF7F1FF114B1A7802B138BD012220
S315020021901A70FFF7E7FF0E4D2B68013B2B60002BF1
S315020021A0F4D0002320681A461946FEF71FF90128C3
S315020021B0F2D000212068FFF7D7FF2B68013B2B6086
S315020021C0002BEED138BD00BF700806227408062225
S315020021D07808062238B500230B4D0C4C01214FF42A
S315020021E080700B4A2B602370FEF7C4F8094B186007
S315020021F028B1FFF789FFFEF7D1FD002038BD014661
S31502002200FFF7B2FFF5E700BF780806227408062238
S315020022102808062270080622802330B4034D044C97
S3150200222005600C60136030BC704700BFC807062209
S31502002230C8050622802330B4034D044C05600C60A9
S31502002240136030BC704700BF680506226803062289
S315020022502A4B2DE9F0471F88002F4ED000254FF05C
S31502002260010AD3F80480264EDFF8A090254C08EB2D
S315020022704707EFF310828AF31088336823B94021A7
S3150200228089F8143089F8141033680133336082F305
S315020022901088A7EB080EAEF1020E4FEA5E0E0EF1A3
S315020022A0010E41464EF001E0174831F8022B130A9F
S315020022B01B0153FA82F254F8223003402B4343F0B7
S315020022C0040344F822300FF011C0EFF310828AF3B0
S315020022D01088336813B13368013B3360336823B91E
S315020022E0802189F8143089F8141082F310887D2031
S315020022F085F00105FEF778FEBBE7FEE79C2B0002A0
S31502002300E802062200084040FE3FFEFF000D404064
S31502002310022800D0704702490248FFF7B9BD00BF44
S31502002320B82C00026003062202440346934200D1FF
S31502002330704703F8011BF9E70A44431E914200D194
S31502002340704710B511F8014B914203F8014FF9D1CC
S3150200235010BDFFFF4275696C74207769746820525C
S31502002360656E6573617320416476616E6365642090
S31502002370466C657869626C6520536F667477617224
S3150200238065205061636B6167652076657273696F5C
S315020023906E20352E372E3000352E372E30000000B7
S315020023A000000705F8B500BFF8BC08BC9E4670479A
S315020023B0F8B500BFF8BC08BC9E46704778517565F3
S315020023C07565000000000000433A2F55736572736D
S315020023D02F6C796E78652F446F63756D656E7473B5
S315020023E02F4769744875622F72613865315F707262
S315020023F06A2F72612F6177732F4672656552544F49
S31502002400532F4672656552544F532F536F7572633D
S31502002410652F71756575652E6300000070785175BC
S31502002420657565007852657475726E20213D2028A7
S31502002430202820282042617365547970655F7420D4
S315020024402920302029202900707853746174696329
S3150200245051756575650000007853697A65203D3DC2
S315020024602073697A656F66282051756575655F7494
S315020024702029000070784E657751756575650000F4
S315020024807848616E646C65002128202820707649A0
S3150200249074656D546F5175657565203D3D2028281C
S315020024A0766F6964202A29302920292026262028A9
S315020024B020707851756575652D3E75784974656D20
S315020024C053697A6520213D2028205542617365545F
S315020024D07970655F74202920305520292029000053
S315020024E0212820282078436F7079506F73697469A8
S315020024F06F6E203D3D202820282042617365547965
S3150200250070655F7420292032202920292026262062
S315020025102820707851756575652D3E75784C656E07
S3150200252067746820213D20312029202900000000FF
S315020025302128202820785461736B47657453636899
S315020025406564756C657253746174652829203D3D16
S31502002550202820282042617365547970655F7420B3
S31502002560292030202920292026262028207854694F
S31502002570636B73546F5761697420213D20302029A3
S3150200258020290000707851756575652D3E7578496C
S3150200259074656D53697A65203D3D20300000000068
S315020025A02128202820707851756575652D3E706347
S315020025B048656164203D3D202828766F6964202A9B
S315020025C02930292029202626202820707851756551
S315020025D075652D3E752E7853656D6170686F7265EF
S315020025E02E784D75746578486F6C64657220213D4E
S315020025F0202828766F6964202A2930292029202953
S315020026000000000028207078517565756520290044
S315020026102128202820282070764275666665722059
S3150200262029203D3D202828766F6964202A293029F1
S3150200263020292026262028202820707851756575A5
S315020026406520292D3E75784974656D53697A652032
S31502002650213D2028205542617365547970655F7467
S315020026602029203055202920290000007854617342
S315020026706B000000433A2F55736572732F6C796EA7
S3150200268078652F446F63756D656E74732F47697431
S315020026904875622F72613865315F70726A2F726196
S315020026A02F6177732F4672656552544F532F4672C8
S315020026B0656552544F532F536F757263652F74615C
S315020026C0736B732E63000000282028202820282000
S315020026D0707844656C617965645461736B4C697397
S315020026E07420292D3E75784E756D6265724F664966
S315020026F074656D73203D3D202820554261736554F3
S315020027007970655F74202920302029203F202820F7
S31502002710282042617365547970655F7420292031DF
S315020027202029203A20282028204261736554797096
S31502002730655F7420292030202920292029000000E5
S31502002740707578537461636B427566666572202193
S315020027503D202828766F6964202A29302900000046
S3150200276070785461736B42756666657220213D20EE
S315020027702828766F6964202A293029007853697AD5
S3150200278065203D3D2073697A656F66282054434271
S315020027905F7420290000000075785072696F7269B3
S315020027A07479203C2028352900000000757853638F
S315020027B0686564756C657253757370656E6465647D
S315020027C0203D3D2028205542617365547970655F2E
S315020027D0742029203055000049444C450000000071
S315020027E07852657475726E20213D2028202D312085
S315020027F02900000075785363686564756C657253C9
S31502002800757370656E64656420213D2028205542EB
S31502002810617365547970655F742029203055000014
S315020028207578546F705072696F726974790000001E
S3150200283070784576656E744C697374007078556E5F
S31502002840626C6F636B65645443420000707854692E
S315020028506D654F757400000070785469636B73542C
S315020028606F57616974000000546D725100000000D8
S315020028707854696D65720000433A2F557365727319
S315020028802F6C796E78652F446F63756D656E747300
S315020028902F4769744875622F72613865315F7072AD
S315020028A06A2F72612F6177732F4672656552544F94
S315020028B0532F4672656552544F532F536F75726389
S315020028C0652F74696D6572732E6300002820707817
S315020028D054696D65722D3E7854696D6572506572E4
S315020028E0696F64496E5469636B73203E20302029F8
S315020028F000000000546D72205376630078526574AE
S3150200290075726E0075635356434E756D626572201D
S315020029103C3D203300000000433A2F557365727325
S315020029202F6C796E78652F446F63756D656E74735F
S315020029302F4769744875622F72613865315F70720C
S315020029406A2F72612F6673702F7372632F726D5FB7
S315020029506672656572746F735F706F72742F706FD3
S3150200296072742E63000000002828285343425F54E5
S31502002970797065202A29202828307845303030455C
S31502002980303030554C29202B2030783044303055A9
S315020029904C2920292D3E494353522026202830789F
S315020029A0314646554C202929203D3D203000000065
S315020029B07578437269746963616C4E657374696E86
S315020029C067000000426C696E6B792054687265611B
S315020029D06400FFFF765175657565416464546F52F4
S315020029E065676973747279007851756575655365A3
S315020029F06D6170686F726554616B650078517565BB
S31502002A0075655265636569766500FFFF7851756580
S31502002A10756547656E6572696353656E6400FFFF8F
S31502002A20785175657565437265617465436F756E38
S31502002A3074696E6753656D6170686F726553746110
S31502002A407469630078517565756547656E65726967
S31502002A506343726561746553746174696300FFFF51
S31502002A6078517565756547656E65726963526573FA
S31502002A70657400FF785461736B436865636B466FD8
S31502002A807254696D654F757400FFFFFF7854617368
S31502002A906B52656D6F766546726F6D4576656E74BF
S31502002AA04C69737400FFFFFF765461736B506C615F
S31502002AB063654F6E4576656E744C697374526573C1
S31502002AC07472696374656400765461736B506C61E9
S31502002AD063654F6E4576656E744C69737400FFFFCD
S31502002AE0765461736B537769746368436F6E74656A
S31502002AF0787400FF785461736B496E6372656D6515
S31502002B006E745469636B00FF785461736B5265731C
S31502002B10756D65416C6C00FF765461736B5374611D
S31502002B2072745363686564756C657200765461737A
S31502002B306B44656C617900FF707276496E697469DF
S31502002B40616C6973654E65775461736B00FFFFFFB5
S31502002B50785461736B437265617465537461746909
S31502002B606300FFFF0400000070727650726F6365A7
S31502002B7073735265636569766564436F6D6D616EE5
S31502002B80647300FF7854696D65724372656174659A
S31502002B9054696D65725461736B00FFFF0200000099
S31502002BA0A42B000204040804000000000000000038
S31502002BB0000000000000000000000000000000000D
S31502002BC000000000000000000000000000000000FD
S31502002BD000000000000000000000000000000000ED
S31502002BE000000000000000000000000000000000DD
S31502002BF000000000000000000000000000000000CD
S31502002C0000000000000000000000000000000000BC
S31502002C1000000000000000000000000000000000AC
S31502002C20000000000000000000000000000000009C
S31502002C30000000000000000000000000000000008C
S31502002C40000000000000000000000000000000007C
S31502002C50000000000000000000000000000000006C
S31502002C600000000000000000010002000800100041
S31502002C70020403040404FFFF76506F7274457869F8
S31502002C8074437269746963616C00FFFF76506F72F8
S31502002C9074456E746572437269746963616C00FF90
S31502002CA076506F727453564348616E646C65725FF8
S31502002CB04300FFFF0000000036000000C42C0002A3
S31502002CC000000000000000000100000000000000FB
S31502002CD003000000000000000400000000400000A5
S31502002CE0060000000000000007000000004000008F
S31502002CF009000000004000000A0000000000000079
S31502002D000E000000000000000F0000000000010598
S31502002D1001010000000001050201000000000000A0
S31502002D20050100000000000006010000040000008A
S31502002D3007010000000000000C0100000000000076
S31502002D400D010000000000000E010000000000005E
S31502002D50030200000000000004020000000001005F
S31502002D600802000000000100090200000000010044
S31502002D700A020000000001000B0200000000000031
S31502002D800003000000000000020300000000000033
S31502002D900303000000000000090300000000000019
S31502002DA00A030000000000000B0300000000010FF0
S31502002DB0000400000000010F0104000004000000EE
S31502002DC0040400000000010F050400000000010FCA
S31502002DD006040000040000000804000000000000D1
S31502002DE004060000000000000506000000000000C6
S31502002DF009060000000000000A06000000000000AC
S31502002E000B060000000000000C0600000000000097
S31502002E100E0600000000010F000700000000010F6F
S31502002E20010700000000010F020700000000010F69
S31502002E30030700000000010F080700000000010F51
S31502002E40090700000000010F0A0700000000000049
S31502002E500108000000000000020800000000000057
S31502002E600308000000000000040800000000000043
S30D02002E70090800000000000041
S30D02002E78AD0000028500000214
S3150300A100FFFFFFFFFFFFFFFFFFFFFFFFFFFFFFFF56
S3090300A110FFFFFFFF46
S3090300A134FFFFFFFF22
S3150300A200FFF5FFFDFFFFFFFFFFFFFFFFFFFFFFFF61
S3150300A210FFFFFFFFFFFFFFFFFFFFFFFFFFFFFFFF45
S3150300A220FFFFFFFFFFFFFFFFFFFFFFFFFFFFFFFF35
S3150300A230FFFFFFFFFFFFFFFFFFFFFFFFFFFFFFFF25
S3150300A240FFFFFFFFFFFFFFFFFFFFFFFFFFFFFFFF15
S3150300A250FFFFFFFFFFFFFFFFFFFFFFFFFFFFFFFF05
S3150300A260FFFFFFFFFFFFFFFFFFFFFFFFFFFFFFFFF5
S3150300A270FFFFFFFFFFFFFFFFFFFFFFFFFFFFFFFFE5
S3150300A28000000000FFFFFFFFFFFFFFFFFFFFFFFFD1
S3150300A290FFFFFFFFFFFFFFFFFFFFFFFFFFFFFFFFC5
S3150300A2A0FFFFFFFFFFFFFFFFFFFFFFFFFFFFFFFFB5
S3150300A2B0FFFFFFFFFFFFFFFFFFFFFFFFFFFFFFFFA5
S3150300A2C0FFFFFFFFFFFFFFFFFFFFFFFFFFFFFFFF95
S70502001701E0
